:020000040800F2
:1000000048070020CD010008F90600089903000800
:10001000F5060008750200087B09000800000000D2
:100020000000000000000000000000001D070008A4
:100030007902000800000000FB06000831080008F3
:10004000E7010008E7010008E7010008E7010008F0
:10005000E7010008E7010008E7010008E7010008E0
:10006000E7010008E7010008E7010008E7010008D0
:10007000E7010008E7010008E7010008E7010008C0
:10008000E7010008E7010008E7010008E7010008B0
:10009000E7010008E7010008E7010008E7010008A0
:1000A000E7010008E7010008E7010008E701000890
:1000B000E7010008E7010008E7010008E701000880
:1000C000E7010008E7010008E7010008E701000870
:1000D000E701000895080008E7010008E7010008AB
:1000E000E7010008E7010008E7010008E701000850
:1000F000E7010008E7010008E7010008E701000840
:10010000E7010008E7010008E7010008E70100082F
:10011000E7010008E7010008E7010008E70100081F
:10012000E7010008E7010008E7010008E70100080F
:1001300000F002F800F03AF80AA090E8000C8244BF
:100140008344AAF10107DA4501D100F02FF8AFF29C
:10015000090EBAE80F0013F0010F18BFFB1A43F0A5
:1001600001031847C80A0000E80A0000103A24BF3B
:1001700078C878C1FAD8520724BF30C830C144BF0C
:1001800004680C607047000000230024002500264E
:10019000103A28BF78C1FBD8520728BF30C148BFEA
:1001A0000B6070471FB51FBD10B510BD00F033F8D0
:1001B0001146FFF7F7FF00F02DFC00F051F803B4F3
:1001C000FFF7F2FF03BC00F0DAFB000009488047AC
:1001D00009480047FEE7FEE7FEE7FEE7FEE7FEE729
:1001E000FEE7FEE7FEE7FEE704480549054A064B41
:1001F0007047000035080008310100084801002060
:10020000480700204803002048030020704770473B
:10021000704770477047754600F028F8AE460500F5
:100220006946534620F00700854618B020B5FFF711
:10023000DBFFBDE820404FF000064FF000074FF015
:1002400000084FF0000B21F00701AC46ACE8C009F4
:10025000ACE8C009ACE8C009ACE8C0098D467047FD
:100260000446AFF300802046FFF7A9FF004870471F
:10027000E800002000BFFEE770472DE9F04102468C
:1002800000250026002000230024002791F803C049
:100290000CF00F0591F803C00CF0100CBCF1000F2E
:1002A00003D091F802C04CEA050591F800C0BCF1FA
:1002B000000F31D0146800202BE04FF0010C0CFA35
:1002C00000F3B1F800C00CEA03069E4220D183007F
:1002D0004FF00F0C0CFA03F7BC4305FA03FC4CEA91
:1002E000040491F803C0BCF1280F06D14FF0010CB3
:1002F0000CFA00FCC2F814C00AE091F803C0BCF18B
:10030000480F05D14FF0010C0CFA00FCC2F810C0E8
:10031000401C0828D1D31460B1F800C0BCF1FF0F15
:1003200034DD546800202EE000F1080C4FF0010885
:1003300008FA0CF3B1F800C00CEA03069E4221D182
:1003400083004FF00F0C0CFA03F7BC4305FA03FCD3
:100350004CEA040491F803C0BCF1280F05D100F168
:10036000080C08FA0CF8C2F8148091F803C0BCF12C
:10037000480F07D100F1080C4FF0010808FA0CF8FB
:10038000C2F81080401C0828CED35460BDE8F0812C
:10039000416170470161704700BFFEE708B5012168
:1003A000102000F0ABF90121202000F0A7F9012175
:1003B000042000F0A3F90121082000F09FF910208B
:1003C0008DF803000120ADF8000003208DF8020035
:1003D0006946C448FFF751FF0121C248FFF7DAFF21
:1003E00010208DF803000220ADF8000003208DF8E6
:1003F00002006946BB48FFF740FF0221B948FFF7FA
:10040000C9FF10208DF803000420ADF80000032080
:100410008DF802006946B348FFF72FFF0421B14869
:10042000FFF7B8FF10208DF803000820ADF800009A
:1004300003208DF802006946AA48FFF71EFF082135
:10044000A848FFF7A7FF10208DF80300ADF80000C3
:1004500003208DF802006946A248FFF70EFF102125
:10046000A048FFF797FF10208DF803002020ADF87B
:10047000000003208DF8020069469A48FFF7FDFE50
:1004800020219848FFF786FF10208DF803004020B8
:10049000ADF8000003208DF8020069469148FFF78F
:1004A000ECFE40218F48FFF775FF10208DF8030008
:1004B0008020ADF8000003208DF8020069468948CD
:1004C000FFF7DBFE80218748FFF764FF10208DF8DF
:1004D00003000001ADF8000003208DF8020069461A
:1004E0008048FFF7CAFE4FF480717E48FFF752FF45
:1004F00010208DF803004001ADF8000003208DF8B6
:10050000020069467748FFF7B8FE4FF4007175485E
:10051000FFF740FF10208DF803008001ADF80000C8
:1005200003208DF8020069466E48FFF7A6FE4FF4DF
:1005300080616C48FFF72EFF10208DF80300C0018A
:10054000ADF8000003208DF8020069466548FFF70A
:1005500094FE4FF400616348FFF71CFF10208DF8F4
:1005600003000002ADF8000003208DF80200694688
:100570005C48FFF782FE4FF480515A48FFF70AFFAC
:1005800010208DF803004002ADF8000003208DF824
:10059000020069465348FFF770FE4FF4005151487E
:1005A000FFF7F8FE10208DF803008002ADF8000080
:1005B00003208DF8020069464A48FFF75EFE4FF4BB
:1005C00080414848FFF7E6FE10208DF80300C00286
:1005D000ADF8000003208DF8020069464148FFF79E
:1005E0004CFE4FF400413F48FFF7D4FE10208DF839
:1005F00003000420ADF8000003208DF802006946D6
:100600003948FFF73AFE04213748FFF7C3FE1020B0
:100610008DF803000001ADF8000003208DF8020002
:1006200069463248FFF729FE4FF480712F48FFF7E3
:10063000B1FE10208DF803004020ADF8000003202B
:100640008DF8020069462A48FFF717FE4021284826
:10065000FFF7A0FE10208DF803008020ADF8000009
:1006600003208DF8020069462148FFF706FE80212D
:100670001F48FFF78FFE10208DF803000001ADF832
:10068000000003208DF8020069461948FFF7F5FDC8
:100690004FF480711648FFF77DFE10208DF803009F
:1006A0004001ADF8000003208DF8020069461048B3
:1006B000FFF7E3FD4FF400710D48FFF76BFE1020CC
:1006C0008DF803000001ADF8000003208DF8020052
:1006D00069460748FFF7D1FD4FF480710448FFF7E2
:1006E00059FE08BD000C0140001401400008014003
:1006F0000010014000BFFEE77047704729B1064A6D
:1007000092690243044B9A6104E0034A926982436E
:10071000014B9A617047000000100240704710B50D
:1007200000F002F810BD00000CB500200190009010
:100730003348006840F480303149086000BF3048D9
:10074000006800F4003000900198401C019000986F
:1007500018B90198B0F5A06FF1D12948006800F4EC
:10076000003010B10120009001E0002000900098BE
:10077000012843D12348006840F010002149086057
:100780000846006820F0030008600846006840F052
:10079000020008601A4840681949486008464068E5
:1007A00048600846406840F48060486008464068F9
:1007B00020F47C1048600846406840F4E810486027
:1007C0000846006840F08070086000BF0C48006870
:1007D00000F000700028F9D00948406820F00300BC
:1007E000074948600846406840F00200486000BF82
:1007F0000348406800F00C000828F9D10CBD000047
:100800000010024000200240042808D14FF0E021EF
:10081000096941F004014FF0E022116107E04FF057
:10082000E021096921F004014FF0E02211617047D5
:100830007047000010B51348006840F001001149EE
:10084000086008464068104908400E49486008465C
:1008500000680E4908400B4908600846006820F40B
:10086000802008600846406820F4FE0048604FF48D
:100870001F008860FFF753FF4FF0006004490860D5
:1008800010BD0000001002400000FFF8FFFFF6FE60
:1008900008ED00E010B540F225511D4800F03EF88B
:1008A00010B31B4800F064F8C4B21A48008800F482
:1008B0000040C8B91748008800F4804060B10A2C95
:1008C00003D000201349088020E01248008840F43B
:1008D00000401049088019E00D2C06D10D48008811
:1008E00040F480400B49088010E00A480088C0F3BB
:1008F0000D0009490C5407480088401C0549088030
:1009000008460088C72801DD0020088010BD0000CF
:10091000003801401C0000202000002070B5024675
:10092000002400230025002040F66A16B14200D1C1
:1009300000BFC1F3421501F01F03012606FA03F3BD
:10094000012D02D19689334006E0022D02D1168A8C
:10095000334001E0968A33400C12012606FA04F473
:100960001688344013B10CB1012000E0002070BDA6
:1009700001468888C0F30800704700BFFEE70146C3
:1009800000BF704710B56FF00400FFF73DFF0A4845
:1009900000680A49B0FBF1F0094908700846007880
:1009A00000EB4001C1EBC0104FF6FF7101EAC0003F
:1009B0000449088010BD00000000002000127A00E9
:1009C00014000020160000200146114A12884A43F4
:1009D0004FF0E0235A6100229A611A46126942F0F0
:1009E00001021A6100BF4FF0E022106900F001021D
:1009F0001AB100F48032002AF5D04FF0E0221269DB
:100A000022F001024FF0E0231A6100229A61704740
:100A100016000020FFF7B6FFFFF7C0FC01E1402100
:100A20008048FFF7B5FC6420FFF7CEFF80217D48AA
:100A3000FFF7AEFC6420FFF7C7FF4FF480717948E1
:100A4000FFF7A6FC6420FFF7BFFF4FF40071754865
:100A5000FFF79EFC6420FFF7B7FF01217248FFF704
:100A600097FC6420FFF7B0FF02216F48FFF790FC6E
:100A70006420FFF7A9FF20216B48FFF789FC642061
:100A8000FFF7A2FF40216848FFF782FC6420FFF7D0
:100A90009BFF4FF480616448FFF77AFC6420FFF706
:100AA00093FF4FF400716048FFF772FC6420FFF77A
:100AB0008BFF4FF480715C48FFF76AFC6420FFF7FE
:100AC00083FF80215848FFF763FC6420FFF77CFF19
:100AD0004FF400615448FFF75BFC6420FFF774FF9C
:100AE0004FF480515048FFF753FC6420FFF76CFF30
:100AF0004FF400514C48FFF74BFC6420FFF764FFB4
:100B00004FF480414848FFF743FC6420FFF75CFF47
:100B10004FF400414448FFF73BFC6420FFF754FFCB
:100B200040214048FFF736FC6420FFF74DFF80214D
:100B30003C48FFF72FFC6420FFF746FF4FF480711D
:100B40003848FFF727FC6420FFF73EFF4FF40071A1
:100B50003448FFF71FFC6420FFF736FF01213248BD
:100B6000FFF718FC6420FFF72FFF02212E48FFF744
:100B700011FC6420FFF728FF20212B48FFF70AFC17
:100B80006420FFF721FF40212748FFF703FC642082
:100B9000FFF71AFF4FF480612348FFF7FBFB642047
:100BA000FFF712FF4FF400711F48FFF7F3FB6420BB
:100BB000FFF70AFF4FF480711B48FFF7EBFB64203F
:100BC000FFF702FF80211848FFF7E4FB6420FFF7DE
:100BD000FBFE4FF400611448FFF7DCFB6420FFF7D5
:100BE000F3FE4FF480511048FFF7D4FB6420FFF769
:100BF000EBFE4FF400510C48FFF7CCFB6420FFF7ED
:100C0000E3FE4FF480410848FFF7C4FB6420FFF780
:100C1000DBFE4FF400410448FFF7BCFB6420FFF704
:100C2000D3FEFCE600100140000C01404C0C000813
:100C300000000020200000006C0100086C0C00087F
:100C400020000020280700008801000800A24A04B4
:100C5000000000000000000001020304060708096C
:0C0C600000000000000000000000000088
:0400000508000131BD
:00000001FF
